:020000040800F2
:10000000E0070020050100086D1800084F160008E1
:1000100069180008850D0008212D00080000000067
:10002000000000000000000000000000B9220008ED
:10003000AD0F000800000000851F0008A92500087A
:100040001F0100081F0100081F0100081F01000810
:100050001F0100081F010008751000081F0100089B
:100060001F0100081F0100081F0100081F010008F0
:100070001F0100081F0100081F0100081F010008E0
:100080001F0100081F0100081F0100081F010008D0
:100090001F0100081F0100081F0100081F010008C0
:1000A0001F0100081F0100081F0100081F010008B0
:1000B0001F0100081F0100081F0100081F010008A0
:1000C0001F0100081F0100081F0100081F01000890
:1000D0001F010008412A0008ED2A00081F0100083E
:1000E000C51000081F0100081F010008DFF810D02C
:1000F00000F092FB0048004791370008AFF3008002
:10010000E00700200648804706480047FEE7FEE774
:10011000FEE7FEE7FEE7FEE7FEE7FEE7FEE7FEE7B7
:10012000C5250008ED0000082DE9F05F0546002018
:1001300092469B4688460646814640241BE0284658
:1001400041464746224600F09FF953465A46C01A98
:10015000914110D311461846224600F086F92D1A17
:1001600067EB01084F4622460120002100F07DF98F
:1001700017EB00094E41201EA4F10104DFDC4846C4
:1001800031462A464346BDE8F09F40EA01039B07FB
:1001900003D009E008C9121F08C0042AFAD203E0FC
:1001A00011F8013B00F8013B521EF9D2704780EA7A
:1001B000010210B502F00043400022D04A001FD0D7
:1001C000010E01EB1261C0F35600C2F3560240F477
:1001D000000042F40002A0FB022000047F39140456
:1001E00000D0401C50EA124001D44000491EC2B267
:1001F0000C0604EBD010401C4008802A02D003E01B
:10020000002010BD20F00100002900DA0020184372
:1002100010BD30B480EA010202F0004530F0004227
:1002200021F0004013D090B1C30DD40DC2F31601DC
:10023000C0F31600E41A41F4000140F400027D34DA
:10024000914201D3641C00E04900002C02DA30BC6A
:10025000002070474FF400000023914201D3891A17
:10026000034340084FEA4101F7D151B1914202D115
:100270004FF0004105E002D24FF0010101E06FF0C4
:10028000010103EBC450284430BC00F01FB92DE934
:10029000FE4F804681EA0300C00F0C46009021F01B
:1002A000004123F00045B8EB0200A94105D24046C9
:1002B000214690461C460B46024623F00040104360
:1002C00047D0270DC7F30A00C3F30A510290401A22
:1002D000019040286BDAC3F3130040F4801B0098B0
:1002E000924620B10023D2EB030A63EB0B0B01987B
:1002F0005946C0F14002504600F0B7F806460D4698
:1003000050465946019A00F0CFF810EB08006141C1
:10031000002487EA115284EAE7731A4340D0009A16
:1003200062B3019A012A4FEA075215DC001B61EB08
:1003300002014FF0004202EA0752CDE90042001CE0
:1003400041F5801132462B4600F006F903B0BDE8B6
:10035000F08F40462146F9E7001B61EB0201001CCB
:1003600041F5801300185B412018A2F5001747EBF8
:10037000030140EAD570B6196D4111E06D084FEAEE
:10038000360645EAC0754FEA0752001B61EB0201D1
:10039000001C41F5801149084FEA30000019514115
:1003A00032462B4603B0BDE8F04F00F0C6B80098C7
:1003B000012240000023D0EB020263EBE0730098BF
:1003C00021464FEAE074B8EB000061EB0401E9E775
:1003D00083F000435BE781F0004158E79623002259
:1003E000114600F07CB8C1F30A5210B5C1F31301F5
:1003F00040F2FF3341F480119A4201DA002010BD2F
:1004000040F233439A42A2F2334203DC524200F0FC
:100410003BF810BD904010BD00F0004230F00040AD
:100420000AD0C10D01F56071C0F3160042EA015116
:10043000C20840071143704700200146704730B59D
:100440000B46014600202022012409E021FA02F592
:100450009D4205D303FA02F5491B04FA02F528442C
:10046000151EA2F10102F1DC30BD202A04DB203A86
:1004700000FA02F1002070479140C2F1200320FAF7
:1004800003F3194390407047202A04DB203A21FAF5
:1004900002F00021704721FA02F3D040C2F120029D
:1004A0009140084319467047202A06DBCB17203AB3
:1004B00041FA02F043EAE07306E041FA02F3D04069
:1004C000C2F1200291400843194670470029A8BF95
:1004D0007047401C490008BF20F00100704710B46D
:1004E000B0FA80FC00FA0CF050EA010404BF10BC22
:1004F000704749B1CCF1200421FA04F411FA0CF14F
:1005000018BF012121430843A3EB0C01CB1D4FEA87
:1005100000614FEA102042BF002010BC704700EB82
:10052000C35010440029A4BF10BC7047401C4900B0
:1005300008BF20F0010010BC704710B5141E73F105
:10054000000408DA401C41F1000192185B411A4393
:1005500001D120F0010010BD2DE9F04D92469B46DF
:1005600011B1B1FA81F202E0B0FA80F22032904685
:10057000FFF77BFF04460F4640EA0A0041EA0B0101
:1005800053465A46084313D0114653EA010019D086
:10059000C8F140025046FFF777FF05460E46504629
:1005A00059464246FFF761FF084305D0012004E0A9
:1005B00020463946BDE8F08D0020054346EAE07646
:1005C0002C4337430A986305E40AA0EB0800002295
:1005D000FD0A44EA47540A3002D500200146E9E703
:1005E000010510196941DDE9084500196941BDE8B7
:1005F000F04DA2E72DE9FE4F81EA030404F0004428
:1006000021F0004100944FF0000B23F0004350EA2A
:1006100001045ED052EA03045BD0C3F30A54C1F371
:100620000A552C44A4F2F3340194A0FB0254C1F304
:10063000130141F48011C3F3130343F4801301FB4E
:10064000024400FB034E840A970A44EA815447EAB5
:100650008357A4FB076802958D0A05FB07854FEABF
:10066000932C04FB0C542705029D4FEA065847EAD9
:100670001637B5EB08056EEB070C870E920E47EAAE
:10068000811742EA8312A7FB0201B6EB0B0164EB70
:1006900000042B0D43EA0C335E1844EB1C50DA4681
:1006A0005146E7FB0201C5F313044FEA0B3343EA5B
:1006B00014534FEA0432019C43EA0603A4F10C04EC
:1006C0000294009CCDE900B4FFF746FF03B0BDE8FB
:1006D000F08F00200146F9E72DE9F04D81EA03048F
:1006E00004F0004B21F0004514464FF0000A23F0BF
:1006F000004150EA050220D054EA01021DD0C5F3A2
:100700000A570246C5F31303C1F31300C1F30A5697
:1007100040F4801543F48013A7EB0608101BD6465F
:1007200008F2FD3873EB050002D308F1010801E07F
:1007300092185B41B8F1000F03DA00200146BDE8D2
:10074000F08D00204FF48011064684460EE0171B02
:1007500073EB050705D3121B63EB050306434CEA55
:10076000010C49084FEA300092185B4150EA01073A
:10077000EDD152EA030012D082EA040083EA0501B7
:10078000084305D0101BAB4106D20122002306E02E
:1007900000224FF0004302E06FF0010253101AEB09
:1007A00006004CEB085110EB0A0041EB0B01BDE8D1
:1007B000F04DFFF7C2BEC1F30A52C1F3130140F27C
:1007C000FF3341F480119A4202DA0020014670475B
:1007D00040F233439A42A2F2334202DC5242FFF724
:1007E00053BEFFF742BE000030B5041E71F1000495
:1007F00004DB4FF00044404264EB0101141E73F12E
:10080000000405DB1C464FF00043524263EB040337
:10081000994208BF904230BD064C074D06E0E068A3
:1008200040F0010394E8070098471034AC42F6D337
:10083000FFF760FC484100086841000870B58C185B
:1008400010F8015B15F0070301D110F8013B2A11E4
:1008500006D110F8012B03E010F8016B01F8016BD1
:100860005B1EF9D12B0705D40023521E0DD401F8CD
:10087000013BFAE710F8013BCB1A921C03E013F896
:10088000015B01F8015B521EF9D5A142D8D30020CB
:1008900070BD21B1826842F00102826003E082688B
:1008A00022F001028260704710B50446124884426B
:1008B00008D10121401501F093FB0021601501F0E2
:1008C0008FFB17E00D48844208D10121001501F08B
:1008D00087FB0021201501F083FB0BE008488442D0
:1008E00008D10121C80301F07BFB00214FF4004037
:1008F00001F076FB10BD00000024014000280140FB
:10090000003C0140014600208A6802F004020AB15E
:10091000012000E0002070470146C86C80B270479B
:100920000246002013680B400BB1012000E00020BC
:100930007047014600208A6802F008020AB10120CF
:1009400000E000207047000030B502460020002380
:1009500050680F4C20400D790C6844EA0524204370
:10096000506090680B4C2040D1E902542C434D79E3
:1009700044EA450420439060D06A20F470000C7C67
:10098000641EE4B2234340EA0350D06230BD00004D
:10099000FFFEF0FFFDF7F1FFF0B504460D46002025
:1009A0000021092D11DDE068A5F10A0606EB4607D6
:1009B000072606FA07F18843A5F10A0606EB460664
:1009C00003FA06F10843E0600CE0206905EB4507F7
:1009D000072606FA07F1884305EB450603FA06F1F8
:1009E00008432061072A0FDA606B561E06EB860764
:1009F0001F2606FA07F18843561E06EB860605FAFF
:100A000006F10843606322E00D2A0FDA206BD61F3F
:100A100006EB86071F2606FA07F18843D61F06EB6A
:100A2000860605FA06F10843206310E0E06AA2F1A9
:100A30000D0606EB86071F2606FA07F18843A2F18A
:100A40000D0606EB860605FA06F10843E062F0BDE6
:100A5000816841F008018160704721B1826842F4E9
:100A6000A002826003E0826822F4A00282607047E4
:100A7000816841F0040181607047000010B50E48A4
:100A8000006830B10C48006802F04AFE00200A49B4
:100A900008600A48006830B10848006802F040FE6B
:100AA000002006490860002005490870002105481B
:100AB000FFF7EFFE10BD00002C00002034000020E6
:100AC000300000200024014010B586B0044624B157
:100AD000207B10B1207B102802DD012006B010BD64
:100AE000FFF7CCFF626A616841EA0200012101F070
:100AF00067FAA06A01F048FA208980B2ADF80000D8
:100B000000208DF803006946206800F0D5FB206ABC
:100B1000FFF7CAFE002001908DF808008DF809004B
:100B20004FF4602003900020049001208DF8140001
:100B300001A9206AFFF708FF0121206AFFF7A9FE3B
:100B4000206AFFF785FF00BF206AFFF7F2FE00284A
:100B5000FAD1206AFFF78CFF00BF206AFFF7D2FEB0
:100B60000028FAD1207B164908700978480002F065
:100B70003FFF144908601249087802F039FF124912
:100B800008601048006810B10846006818B9FFF7FF
:100B900075FF0220A2E700200CE00021094A12683C
:100BA00022F8101004F10D01095C074A1268115473
:100BB000411CC8B2024909788842EEDB00208DE76B
:100BC000300000202C000020340000200246B42910
:100BD00000DDB421908A538AC01A4843B42390FBA5
:100BE000F3F0538A184480B2704710B5012001F029
:100BF00007FA002001F004FA10BD000010B5034808
:100C0000FFF762FF08B100BFFEE710BDCC00002077
:100C100010B54FF4A06000F063FE00F02BF800F078
:100C20000FF800F04DF800F01DF8012000F014F866
:100C3000FFF7E4FF00F040F800F036F810BD0000C8
:100C400010B54FF480720249024800F049F810BD17
:100C5000000C01404C00002010B50446204600F076
:100C6000E1F910BD10B50521014800F0F2FC10BDFE
:100C70005400002010B501220449054800F062FD2F
:100C800002220249034800F05DFD10BD000C014046
:100C90003C0000204400002010B5024800F0BFFED8
:100CA00010BD00001C01002010B5024800F0FEFF3E
:100CB00010BD00000001002010B501F071FA10BD58
:100CC00000B585B0142205496846FFF75EFA4FF477
:100CD000E131684602F04AF805B000BD443B000827
:100CE000F8B505460C46164600271848844201D13F
:100CF000042712E01648844201D108270DE0154868
:100D0000844201D1102708E01348844201D12027F2
:100D100003E01248844200D140270121384601F007
:100D20004FF9ADF8006010208DF8030003208DF816
:100D300002006946204600F0BFFA2C60AE80002019
:100D4000A8713146204600F034FCF8BD000801408F
:100D5000000C014000100140001401400018014047
:100D600010B50446A188206800F023FC0020A07183
:100D700010BD10B50446A188206800F018FC0120C1
:100D8000A07110BD00BFFEE770B50446002500202D
:100D900001E0411CC8B2102805DAA1880122824076
:100DA00011400029F5D0082810DA2168096883006D
:100DB0000F229A40914322681160216809688300DC
:100DC00008229A4011432268116012E0A0F1080144
:100DD000C8B22168496883000F229A409143226873
:100DE000516021684968830008229A4011432268B3
:100DF000516004E0681CC5B2012000F0E5F82068ED
:100E00008068A188084008B1642DF3DB642D01DB04
:100E1000012070BD002504E0681CC5B2012000F06F
:100E2000D3F820688068A188084008B9642DF3DBF6
:100E3000642D01DB0120ECE70020EAE770B50446F1
:100E4000002504E0681CC5B2012000F0BDF8206850
:100E50008068A188084008B1642DF3DB002504E018
:100E6000681CC5B2012000F0AFF820688068A18836
:100E7000084008B9642DF3DB282000F0A5F82068AD
:100E80008068A188084008B1012070BD0020FCE7FF
:100E900070B506460024002507E06006040E3046C3
:100EA000FFF7CCFF0443681CC5B2082DF5DB2046D4
:100EB00070BD2DE9FC4180460D461646404600F0C7
:100EC0002EF84046FFF760FF28BB002406E04046AE
:100ED000FFF7DEFF0DF80400601CC4B2052CF6DB42
:100EE0009DF800009DF8011008449DF80210084488
:100EF0009DF803100844C7B29DF80400B84206D11B
:100F00009DF8000030709DF80200287002E001207A
:100F1000BDE8FC8101E00120FAE70020F8E710B508
:100F20000446002001E0411CC8B2102805DAA1885F
:100F30000122824011400029F5D0082810DA2168EA
:100F4000096883000F229A4091432268116021684A
:100F50000968830003229A4011432268116012E05D
:100F6000A0F10801C8B22168496883000F229A40A5
:100F700091432268516021684968830003229A40A6
:100F80001143226851602068C068A18888432168A5
:100F9000C860142000F00BF82068C068A1880843DE
:100FA0002168C8601E2000F00FF810BD704770B5B2
:100FB0000446002505E04FF47A7000F005F8681C3F
:100FC00085B2A542F7DB70BD70B5054605B970BDA9
:100FD00012481349097800EB01142946206801F0F2
:100FE000CFFC0021206801F0D6FC0121206801F02F
:100FF00025FB0121206801F024FB00BF01212068AE
:1010000001F050FB0028F9D00021206801F019FB05
:101010000121206801F012FB00BFD8E75C3A00080C
:101020002800002070B505460E2D00DB00250F4876
:1010300005700F4800EB05140121E26860689047D5
:101040000021206801F0FDFA206801F034FB002146
:10105000206801F002FB01224721206801F08DFC8D
:101060000121206801F0EAFA70BD0000280000208C
:101070005C3A000810B50C4A1189506800F05AFB20
:1010800001280BD100BF084A1189506800F052FBBB
:101090000128F8D005A10A4801F044FE0249C868B9
:1010A00000F09AF810BD0000540000204B4559553F
:1010B000505F49525148616E646C6572200D0A00A0
:1010C0000038014010B52E4A118CD06900F032FB77
:1010D00078B900BF2A4A118CD06900F02BFB002898
:1010E000F8D028A12C4801F01DFE2549486A00F0DF
:1010F00073F8234A118F506B00F01CFB78B900BFC6
:101100001F4A118F506B00F015FB0028F8D023A167
:10111000214801F007FE1A49C86B00F05DF8184A33
:10112000B2F85010D06C00F005FB80B900BF144A33
:10113000B2F85010D06C00F0FDFA0028F7D01CA1D6
:10114000154801F0EFFD0E49486D00F045F80C4AD6
:10115000B2F86810506E00F0EDFA80B900BF084A8E
:10116000B2F86810506E00F0E5FA0028F7D015A12B
:10117000094801F0D7FD0249C86E00F02DF810BDF6
:10118000540000204B4559305F49525148616E640C
:101190006C6572200D0A0000003801404B45593142
:1011A0005F49525148616E646C6572200D0A0000FF
:1011B0004B4559325F49525148616E646C657220EB
:1011C0000D0A00004B4559335F49525148616E6426
:1011D0006C6572200D0A000001490860704700002C
:1011E00014040140002123498279002A3AD00A469A
:1011F000126803689A430B461A600A1D1268036856
:101200009A430B1D1A60027911440A6803681A4355
:101210000A60184A0832126803689A43154B08336B
:101220001A601A1D126803689A43124B0C331A6035
:101230004279102A0ED11A1F126803681A430D4B07
:1012400008331A601A1D126803681A43094B0C33DD
:101250001A600DE00749427911440A6803681A438D
:101260000A6005E0027911440A6803689A430A603B
:10127000704700000004014030B500228B071C0FAE
:101280000F2303FA04F20B4B8C1053F824309343D2
:10129000084C8D1044F8253023468C1053F8243028
:1012A0008C07240F00FA04F42343024C8D1044F8F9
:1012B000253030BD080001402DE9F04102460025EF
:1012C0000026002000230024002791F803C00CF022
:1012D0000F0591F803C00CF0100CBCF1000F03D007
:1012E00091F802C04CEA050591F800C0BCF1000F6E
:1012F00031D0146800202BE04FF0010C0CFA00F301
:10130000B1F800C00CEA03069E4220D183004FF0E2
:101310000F0C0CFA03F7BC4305FA03FC4CEA040477
:1013200091F803C0BCF1280F06D14FF0010C0CFA64
:1013300000FCC2F814C00AE091F803C0BCF1480FE9
:1013400005D14FF0010C0CFA00FCC2F810C0401C93
:101350000828D1D31460B1F800C0BCF1FF0F34DD10
:10136000546800202EE000F1080C4FF0010808FA44
:101370000CF3B1F800C00CEA03069E4221D18300B1
:101380004FF00F0C0CFA03F7BC4305FA03FC4CEAD0
:10139000040491F803C0BCF1280F05D100F1080C3A
:1013A00008FA0CF8C2F8148091F803C0BCF1480F99
:1013B00007D100F1080C4FF0010808FA0CF8C2F848
:1013C0001080401C0828CED35460BDE8F081000096
:1013D00038B50446002519492068884201D1042502
:1013E00016E017492068884201D1082510E0154908
:1013F0002068884201D110250AE0134920688842FC
:1014000001D1202504E011492068884200D14025FF
:101410000121284600F0D4FDA088ADF80000A07995
:101420008DF80300E0798DF8020069462068FFF727
:1014300043FF204600F00CF838BD000000080140D2
:10144000000C014000100140001401400018014050
:1014500010B50446A188206800F0A0F8012801D149
:10146000207201E00020207210BD000038B5044653
:10147000002519492068884201D1042516E0174942
:101480002068884201D1082510E01549206888426B
:1014900001D110250AE013492068884201D1202596
:1014A00004E011492068884200D1402501212846E6
:1014B00000F086FDA088ADF80000A0798DF803004B
:1014C000E0798DF8020069462068FFF7F5FE0021FB
:1014D000204600F00BF838BD00080140000C014028
:1014E00000100140001401400018014070B504468E
:1014F0000D46012D04D1A188206800F05AF803E0C0
:10150000A188206800F053F8257270BDF0B50A4636
:10151000002300240021002500F00046B6F1004F12
:1015200002D11D4EF16901E01B4E7168C0F3034505
:1015300083B200F44016B6F5401F08D121F0706167
:10154000154E766826F07066134F7E6012E000F448
:101550008016B6F5801F06D1032606FA05F4A143CE
:1015600041F0706106E0460D360103FA06F6B1431C
:1015700041F0706122B1460D360103FA06F631439F
:1015800000F00046B6F1004F02D1034EF16101E0D8
:10159000014E7160F0BD00000000014002460020D5
:1015A00093680B400BB1012000E0002070474161BF
:1015B0007047016170470AB1016100E04161704705
:1015C00070B5044610480078844202DA0F4800687B
:1015D00008B9002070BD0D480068055D0723012291
:1015E00029460B48FFF7D8F901210948FFF735FADA
:1015F00000BF02210648FFF793F90028F9D00448FC
:10160000FFF78AF9E6E700003000002034000020F0
:10161000002401402DE9F04180460C460025002CB5
:1016200001DD204600E001200646002708E0404694
:10163000FFF7C6FF05440120FFF7B9FC781CC7B2CD
:10164000B742F4DBB5FBF6F080B2BDE8F08100BF35
:10165000FEE72DE9FF4105460E460027002406E07F
:1016600004EB440055F830000743601CC4B2B44298
:10167000F6DB47F001070121384600F0A1FC002409
:1016800054E004EB440005EBC0000089ADF80C0009
:1016900004EB440005EBC000007D8DF80F0004EB67
:1016A000440105EBC101486803A9FFF705FE04EBFF
:1016B000440205EBC202D17A04EB440205EBC202FC
:1016C000907AFFF7D9FD04EB440005EBC000C06839
:1016D000019000208DF8080004EB440005EBC000E9
:1016E000C07C8DF8090001208DF80A0001A8FFF7E1
:1016F00079FD04EB440005EBC000007C8DF8000090
:1017000004EB440005EBC000407C8DF8010004EBC5
:10171000440005EBC000807C8DF8020001208DF8AC
:101720000300684600F0A4F8601CC4B2B442A8DB11
:10173000BDE8FF8170B504460D4629462046FFF7F7
:101740002DFF70BDF8B505460C4616460027184813
:10175000844201D1042712E01648844201D10827AF
:101760000DE01548844201D1102708E01348844257
:1017700001D1202703E01248844200D140270121F3
:10178000384600F01DFCADF8006010208DF8030015
:1017900003208DF8020069462046FFF78DFD2C607E
:1017A000AE800020A87131462046FFF702FFF8BD49
:1017B00000080140000C01400010014000140140ED
:1017C0000018014010B50446A1882068FFF7F1FE1B
:1017D0000020A07110BD10B50446A1882068FFF755
:1017E000E6FE0120A07110BD10B50446A0790128C5
:1017F00003D12046FFF7E6FF02E02046FFF7EBFFAC
:1018000010BD000010B5FFF747FA00F013F800F024
:1018100023F803A301221146054800F0F3F910BD97
:101820004D4F44554C455F496E6974204F4B210024
:101830001C01002010B50548FFF7CAFD0448FFF75A
:10184000C7FD0448FFF7C4FD10BD00002C010020B7
:10185000380100204401002010B50248FFF706FEC1
:1018600010BD00005001002000BFFEE770470000DF
:1018700070B5002100230F22C47804B3154C2468EE
:1018800004F4E064C4F5E064210AC1F10403CA4031
:10189000447804FA03F184781440214309010E4C82
:1018A0000678A155047804F01F050124AC400578A2
:1018B0006D11AD0005F1E025C5F8004109E004789F
:1018C00004F01F050124AC40044D0678761145F85C
:1018D000264070BD0CED00E000E400E080E100E097
:1018E00002490143024A1160704700000000FA05F6
:1018F0000CED00E070B50646002410E00022214601
:10190000304600F007F9002505E00021304600F0E0
:10191000B7F9681CC5B2802DF7DB601CC4B2082C77
:10192000ECDB70BD38B5044619492068884202D006
:10193000A068884203D10121082000F041FB15492D
:101940002068884202D0A068884203D10121042087
:1019500000F036FB14208DF8030003208DF8020000
:10196000A088ADF8000069462068FFF7A5FCA089B3
:10197000ADF800006946A068FFF79EFC01212046F3
:1019800000F056F90121204600F05BF938BD000057
:10199000000C01400008014070B506460D460024C9
:1019A00010E08020204100EA0501304600F049F9AE
:1019B0000121304600F03CF90021304600F038F9B2
:1019C000601CC4B2082CECDB0121304600F030F979
:1019D0000021304600F02CF970BD10B504460121FD
:1019E000204600F02EF90121204600F021F90021C7
:1019F000204600F026F90021204600F019F910BD1C
:101A000010B504460021204600F01BF901212046B4
:101A100000F00EF90121204600F013F910BD70B559
:101A20000646002406E0002500E06D1CB5F57A7F2F
:101A3000FBD3641CB4F57A7FF5D33046FFF772FF11
:101A4000AE21304600F006F9D521304600F002F90B
:101A50008021304600F0FEF8A821304600F0FAF868
:101A60003F21304600F0F6F8D321304600F0F2F87E
:101A70000021304600F0EEF84021304600F0EAF850
:101A8000A121304600F0E6F8C821304600F0E2F827
:101A9000DA21304600F0DEF81221304600F0DAF8A4
:101AA0008121304600F0D6F8CF21304600F0D2F840
:101AB000D921304600F0CEF8F121304600F0CAF8C6
:101AC000DB21304600F0C6F83021304600F0C2F885
:101AD000A421304600F0BEF8A621304600F0BAF846
:101AE0008D21304600F0B6F81421304600F0B2F8EF
:101AF000AF21304600F0AEF83046FFF7FBFE70BD78
:101B000010B50246012000E050430B1EA1F1010177
:101B1000FAD110BD70B506460D46144645F0B00129
:101B2000304600F097F8102040EA1411304600F0DB
:101B300091F804F00F01304600F08CF870BD000001
:101B40002DE9F04180460D4616461F46701EC00620
:101B5000020E681E4006010E4046FFF7DBFF002420
:101B60000AE0A7F12000144A02EB0010015D404694
:101B700000F086F8601CC4B2082CF2DB701EC006B0
:101B8000020E681E012303EB4000C1B24046FFF77E
:101B9000C1FF00240CE0A7F12000074A02EB00126D
:101BA00004F10800115C404600F06AF8601CC4B201
:101BB000082CF0DBBDE8F081583B00082DE9F04728
:101BC0008046894615461E46089F002416E0381BAD
:101BD000411E0A20FFF794FFB6FBF0F00A21B0FB8C
:101BE000F1F201FB120000F1300A2819C2B253468B
:101BF00049464046FFF7A4FF601CC4B2BC42E6DB86
:101C0000BDE8F0872DE9F0410746884616461D4697
:101C1000002408E02B5D3019C2B241463846FFF778
:101C20008FFF601CC4B2285D0028F3D1BDE8F081AD
:101C300070B504460D46A1882A462068FFF7BBFC14
:101C400070BD70B504460D46A1892A46A068FFF70D
:101C5000B2FC70BD70B504460D462046FFF7BDFED0
:101C600078212046FFF798FE00212046FFF794FEDA
:101C700029462046FFF790FE2046FFF7C1FE70BDC3
:101C800070B504460D462046FFF7A7FE7821204692
:101C9000FFF782FE40212046FFF77EFE29462046C0
:101CA000FFF77AFE2046FFF7ABFE70BD30B589B076
:101CB00004465F49A068884204D10121C01400F0A5
:101CC0007FF919E0A068B0F1804F04D101210846E6
:101CD00000F066F910E05749A068884204D101215C
:101CE000022000F05DF907E05349A068884203D163
:101CF0000121042000F054F950492068884204D1A1
:101D00000121052000F05CF910E04D49206888426F
:101D100004D10121092000F053F907E04949206866
:101D2000884203D10121112000F04AF9607B18B1EB
:101D3000607B0121FFF7EAFBA088ADF820001820A6
:101D40008DF8230003208DF8220008A92068FFF7F2
:101D5000B3FA208A3C4991FBF0F0401E85B2ADF801
:101D60001850E089401E80B2ADF814000020ADF894
:101D70001A00ADF816008DF81C0005A9A06800F047
:101D80000DFE6020ADF804000120ADF80600608A69
:101D9000ADF80A000020ADF80C002549A068884283
:101DA00002D10020ADF80800207B012806D00228CF
:101DB0000DD0032814D0042824D11AE001A9A0686A
:101DC00000F080FC0821A06800F0C8FC1AE001A91E
:101DD000A06800F0CDFC0821A06800F01BFD11E018
:101DE00001A9A06800F024FD0821A06800F070FDA2
:101DF00008E001A9A06800F075FD0821A06800F0C6
:101E0000AFFD00BF00BF0121A06800F00BFC012165
:101E1000A06800F016FC0649A068884203D10121A1
:101E2000A06800F023FC0020207609B030BD00003F
:101E3000002C014000040040000800400008014060
:101E4000000C01400010014040420F002DE9F0411C
:101E500004460F4639462046FEF7B8FE0646207B6C
:101E6000012806D0022809D003280CD0042814D158
:101E70000EE0A06800F009FC05460EE0A06800F046
:101E800007FC054609E0A06800F005FC054604E0F3
:101E9000A06800F003FC054600BF00BFAE4201DDB4
:101EA000052001E06FF00400804624E005EB080007
:101EB00085B2207B012806D0022809D003280CD047
:101EC000042814D10EE02946A06800F05BFD0EE066
:101ED0002946A06800F058FD09E02946A06800F0F6
:101EE00055FD04E02946A06800F052FD00BF00BF88
:101EF0000A20FFF75CF8A81B002801DB014600E080
:101F000041420529D2DC207B012806D0022809D0D5
:101F100003280CD0042814D10EE03146A06800F04C
:101F200031FD0EE03146A06800F02EFD09E031469B
:101F3000A06800F02BFD04E03146A06800F028FD09
:101F400000BF00BF4FF4FA70FFF731F8BDE8F08131
:101F500070B504460D46012D06D1A17D2046FFF740
:101F600075FF0120207605E0E17D2046FFF76EFF3A
:101F70000020207670BD0000014908627047000013
:101F800000000E427047000001460020034A5068DE
:101F900020F44040084350607047000000100240A9
:101FA00029B1064AD2690243044BDA6104E0034ACC
:101FB000D2698243014BDA61704700000010024091
:101FC00029B1064A92690243044B9A6104E0034A2C
:101FD00092698243014B9A617047000000100240F1
:101FE00029B1064AD2680243044BDA6004E0034A8E
:101FF000D2688243014BDA60704700000010024053
:1020000001490860704700004004424230B5002199
:102010000022002400232D4D6D6805F00C0121B134
:10202000042905D0082923D105E0294D056022E0C7
:10203000274D05601FE0254D6D6805F47012234D96
:102040006D6805F48034022505EB92421CB9214DE0
:10205000554305600BE01D4D6D6805F400351DB15D
:102060001C4D5543056002E0194D5543056002E0E3
:10207000174D056000BF00BF144D6D6805F0F001FD
:102080000909154D6B5C0568DD4045600F4D6D68B5
:1020900005F4E061090A104D6B5C4568DD40856020
:1020A0000A4D6D6805F46051C90A0B4D6B5C4568BB
:1020B000DD40C560054D6D6805F44041890B074D55
:1020C0006B5CC568B5FBF3F5056130BD00100240DF
:1020D00000127A0000093D001400002024000020B6
:1020E00010B501460022002300204A11012A02D126
:1020F000094C236806E0022A02D1074C236A01E05A
:10210000054C636A01F01F02012494401C400CB18D
:10211000012000E0002010BD0010024000210B4A09
:1021200011700A4A203A82F82010012802D00428AF
:1021300008D103E00121054A117004E00521034A9A
:10214000117000E000BF00BF704700002010024087
:10215000014908607047000080044242014908605C
:10216000704700003C0442420249096A0143014AA7
:1021700011627047001002400348008840F01000D0
:102180000149088070470000042800400348008887
:102190004FF6EF710840014908807047042800405D
:1021A00010B501214FF0C050FFF7FAFE0120FFF7F4
:1021B000E3FEFEF71AFD0120FFF7B0FF4FF6FF74B4
:1021C00000E0641E4120FFF78BFF08B9002CF8D116
:1021D0008CB90120FFF7BCFF00BF6120FFF780FF33
:1021E0000028FAD04FF40070FFF7BEFF49F63F40D9
:1021F00000F020F807E04FF48070FFF7B5FF47F6D6
:10220000FF7000F017F80120FFF7A8FF00F042F878
:1022100000F036F810BD000000B50246FFF7ACFF35
:10222000100C03490880091D0A80FFF7AFFF00BDAD
:102230001828004000B50246FFF79EFFC2F3034096
:1022400003490880091D0A80FFF7A0FF00BD0000B8
:102250000828004070B504460D464FF47A720023FA
:1022600020462946FDF760FF064600BF00F008F84B
:102270003046FFF7D1FF00F003F8012070BD0000E9
:1022800000BF0348008800F020000028F9D0704704
:1022900004280040074800884FF6F77108400549B8
:1022A000088000BF0348008800F008000028F9D02B
:1022B00070470000042800407047000010B5044635
:1022C00024B101210448FFF711F903E0002102487D
:1022D000FFF70CF910BD0000500100202DE9F84F68
:1022E00000F008FD002455E02D4909680888FEF734
:1022F00075F883464FF08B41FDF78BFF82462949E5
:10230000FDF755FF8146FEF787F807460022264B6A
:10231000FDF7BDFF0546FEF766F824490880204911
:1023200009684888FEF75AF883464FF08B41FDF75D
:1023300070FF82461B49FDF73AFF8146FEF76CF8B5
:1023400007460022184BFDF7A2FF0546FEF74BF8A3
:102350001649488016A3012203211748FFF752FCB3
:102360000320009011480388082203211248FFF738
:1023700025FC12A3012204210F48FFF743FC032090
:1023800000900A484388082204210B48FFF716FCF6
:10239000601CC4B20B4800788442A5DBBDE8F88F0E
:1023A0002C0000200000C8420000E03F9401002003
:1023B0004C696768743A00001C010020536D6F6B14
:1023C000653A00003000002008B51D4A511E1D4826
:1023D000FEF76FFD60BB1CA3012211461C48FFF7EE
:1023E00011FC032000901648401F037908220121A8
:1023F0001748FFF7E3FB17A30C2201211448FFF74E
:1024000001FC15A3012202211148FFF7FBFB032069
:1024100000900B48401F4379082202210C48FFF727
:10242000CDFB0FA30C2202210948FFF7EBFB05E0CF
:102430000CA3012211460648FFF7E4FB08BD00008B
:10244000990100205C01002054656D703A00000085
:102450001C0100204300000048756D693A0000002F
:102460002500000052656164204448543131204603
:1024700061696C656421000010B50348FFF73AFA02
:1024800000F004F810BD00001C01002070B501F040
:102490006FF904460D46002184EA010069400843B3
:1024A00003D020462946FFF7D5FE70BD10B504467F
:1024B00021460248FFF74CFD10BD0000000100203E
:1024C00010B500F001F810BD0CB50020019000908F
:1024D0003348006840F480303149086000BF30481C
:1024E000006800F4003000900198401C01900098B2
:1024F00018B90198B0F5A06FF1D12948006800F42F
:10250000003010B10120009001E000200090009800
:10251000012843D12348006840F010002149086099
:102520000846006820F0070008600846006840F090
:10253000020008601A484068194948600846406827
:1025400048600846406840F480604860084640683B
:1025500020F47C1048600846406840F4E810486069
:102560000846006840F08070086000BF0C480068B2
:1025700000F000700028F9D00948406820F00300FE
:10258000074948600846406840F00200486000BFC4
:102590000348406800F00C000828F9D10CBD000089
:1025A000001002400020024010B504480068401CA2
:1025B000024908600248FFF717F910BD38000020F3
:1025C0004400002010B51348006840F00100114994
:1025D000086008464068104908400E4948600846AF
:1025E00000680E4908400B4908600846006820F45E
:1025F000802008600846406820F4FE0048604FF4E0
:102600001F008860FFF75CFF4FF00060044908601E
:1026100010BD0000001002400000FFF8FFFFF6FEB2
:1026200008ED00E021B1028842F08002028004E05F
:1026300002884FF67F731A4002807047CA430282B5
:10264000704721B1028842F00102028004E0028852
:102650004FF6FE731A40028070470A460021018837
:102660004FF68F73194011430180704731B1B0F8B4
:10267000442042F40042A0F8442005E0B0F8442091
:10268000C2F30E02A0F8442070470146888E7047BE
:102690000146088F70470146888F70470146B1F8A0
:1026A0004000704702460020138A0B400BB1012006
:1026B00000E00020704701894FF6F8721140018157
:1026C0007047000070B5002400220023058C4FF6EF
:1026D000FE7635400584028C8388048B4FF68F7517
:1026E0002C40B51E2C400D882C43751E2A400D89A8
:1026F0002A434D882A43144DA8420BD0134DA842BB
:1027000008D0134DA84205D0124DA84202D0124D58
:10271000A84213D14FF6F7752A404D892A434FF648
:10272000FB752A408D882A434FF6FF652B404FF6F4
:10273000FF552B408D892B43CD892B438380048308
:10274000CD888586028470BD002C01400034014094
:102750000040014000440140004801400A46002179
:10276000018B4FF6F7731940114301837047000046
:1027700070B5002400220023058C4FF6EF7635401B
:102780000584028C8388048B48F6FF752C404FF635
:10279000FF452C400D884FF6FF7606EA05252C43B1
:1027A0004FF6DF752A400D8906EA05152A434D8844
:1027B00006EA05152A43154DA84202D0144DA84239
:1027C0001DD14FF67F752A404D894FF6FF7606EAF8
:1027D00005152A434FF6BF752A408D8806EA051570
:1027E0002A434FF6FF352B404FF2FF752B408D8962
:1027F00006EA85052B43CD8906EA85052B438380B0
:102800000483CD880587028470BD0000002C014040
:10281000003401400A460021018B4FF2FF7319403A
:102820004FF6FF7303EA0223194301837047000048
:1028300070B5002400220023058C4FF6FF6635405A
:102840000584028C8388848B4FF68F752C404FF65D
:10285000FC752C400D882C434FF6FF552A400D89FE
:102860004FF6FF7606EA05252A434D8806EA052538
:102870002A43154DA84202D0144DA8421DD14FF253
:10288000FF752A404D894FF6FF7606EA05252A4353
:102890004FF6FF352A408D8806EA05252A434EF675
:1028A000FF752B404DF6FF752B408D8906EA051507
:1028B0002B43CD8906EA05152B4383808483CD887D
:1028C0008587028470BD0000002C01400034014067
:1028D0000A460021818B4FF6F7731940114381831B
:1028E0007047000070B5002200230024058C4EF6CE
:1028F000FF7635400584038C8488828B48F6FF750B
:102900002A404FF6FF452A400D884FF6FF7606EA2B
:1029100005252A434DF6FF752B400D8906EA05353E
:102920002B434D8806EA05352B430B4DA84202D0B8
:102930000A4DA84208D14BF6FF752C408D894FF601
:10294000FF7606EA85152C4384808283CD88A0F823
:102950004050038470BD0000002C01400034014051
:102960000A460021818B4FF2FF7319404FF6FF7327
:1029700003EA0223194381837047018582827047ED
:1029800081857047818670470187704781877047CE
:10299000A0F8401070478184704700000022028830
:1029A0001D4B98420ED01D4B98420BD0B0F1804F7A
:1029B00008D01B4B984205D01A4B984202D01A4BB4
:1029C000984204D14FF68F731A404B881A43174B25
:1029D000984207D0164B984204D04FF6FF431A4056
:1029E000CB881A4302808B8883850B8803850A4B2A
:1029F00098420BD0094B984208D00E4B984205D014
:102A00000D4B984202D00D4B984201D10B7A0386B0
:102A10000123838270470000002C014000340140F4
:102A20000004004000080040000C0040001000407E
:102A300000140040004001400044014000480140B3
:102A400010B540F22551224800F08FF800283ED002
:102A50001F4800F045F9C4B221461D4800F045F971
:102A600000BF80211A4800F073F80028F9D01948F7
:102A700000883F2822DA174801880088401C154A40
:102A80001080154844540D2C1BD10A21104800F029
:102A90002CF900BF80210E4800F05AF80028F9D028
:102AA00000200D490B4A128888540A460BA1084899
:102AB00000F038F900200749088002E000200549AD
:102AC000088040F22551024800F027F800BF10BDF1
:102AD000003801407C010020A001002052656365A0
:102AE000697665643A2025730D0A000010B540F23E
:102AF0002551044800F039F818B12021014800F0B0
:102B000003F810BD0044004001F40072B2F5007FEC
:102B100000D100BFCA430280704710B500220023D5
:102B200040F66A14A14200D100BF0A120124944069
:102B3000A3B2DC43048010BD21B1828942F400526B
:102B4000828104E082894DF6FF731A4082817047CA
:102B500002460020B1F5007F00D100BF13880B4072
:102B60000BB1012000E00020704770B50246002440
:102B700000230025002040F66A16B14200D100BFB4
:102B8000C1F3421501F01F03012606FA03F3012DDC
:102B900002D19689334006E0022D02D1168A3340D5
:102BA00001E0968A33400C12012606FA04F41688D6
:102BB000344013B10CB1012000E0002070BDF0B52D
:102BC0000346002400260025002040F66A17B9427B
:102BD00000D100BF1846C1F3421401F01F060127BF
:102BE00007FA06F5012C01D10C3004E0022C01D1CA
:102BF000103000E014301AB107682F43076002E07C
:102C00000768AF430760F0BD2DE9F04786B0054681
:102C10000E460024A24600BFA1460027B08900B19D
:102C200000BF2F462C8A4CF6FF700440F088044306
:102C30002C82AC894EF6F3100440B08831890843E9
:102C4000718908430443AC81AC8A4FF6FF400440CD
:102C5000B0890443AC8201A8FFF7D8F91F48874226
:102C600002D1DDF810A001E0DDF80CA0A88900F485
:102C7000004040B10AEBCA0000EB0A10316849007D
:102C8000B0FBF1F807E00AEBCA0000EB0A1031686C
:102C90008900B0FBF1F86420B8FBF0F004012009D2
:102CA000642101FB1089A88900F4004040B1322062
:102CB00000EBC900B0FBF1F000F00700044308E0AE
:102CC000322000EB09106421B0FBF1F000F00F009E
:102CD00004432C8106B0BDE8F087000000380140B5
:102CE00001468888C0F308007047C1F3080282805B
:102CF0007047000010B5002409E005212046FEF7CA
:102D000089FC0549096821F81400601CC4B2034815
:102D100000788442F1DB10BD2C0000203000002040
:102D200000BFFEE70FB430B5CBB0054601AC50A8EC
:102D300000904FF4947101A8009B4F9A00F076F830
:102D4000002000900BE014F8011B2846FFF7CDFF90
:102D500000BF40212846FFF7FBFE0028F9D020786D
:102D60000028F0D14BB030BC5DF814FB30B587B013
:102D700004460D460121A068FFF722F92949206881
:102D8000884204D101216068FFF71AF903E00121AC
:102D90006068FFF705F918208DF81B00A089ADF8D1
:102DA000180003208DF81A0006A91F48FEF784FAC0
:102DB00004208DF81B00E089ADF8180003208DF881
:102DC0001A0006A91848FEF777FA02950020ADF818
:102DD00014000C20ADF812000020ADF81000ADF882
:102DE0000E00ADF80C0002A92068FFF70DFF0121CD
:102DF0002068FFF7A1FE012240F225512068FFF76D
:102E0000DEFE207C8DF8040001208DF80700607C38
:102E10008DF80500A07C8DF8060001A8FEF728FDBE
:102E200007B030BD00380140000801407CB50C00FF
:102E30001D461646014601D0601E00E00020CDE987
:102E40000010064B6A462946304600F0DBF8002C9D
:102E500002D0009A002111707CBD00000B370008E1
:102E600002E008C8121F08C1002AFAD17047704753
:102E7000002001E001C1121F002AFBD170470000B1
:102E80002DE9FF5F82B00021DDE90430020DDDF89D
:102E900040B0034318D044F61050A2F2FF32424330
:102EA0001514119801281FD0A5EB0B00401C5FEAF8
:102EB000000A4FF000064E4FDFF83891B0465046FA
:102EC00015D5CAF1000413E0119801244AA3012882
:102ED00001D16FEA0B010298119AC0E90031C0E9F3
:102EE000024206B0BDE8F09FCBF10000DFE70446E8
:102EF0000021404A491842EB0450CDE9001012E08D
:102F0000E00707D032463B4640464946FDF772FB94
:102F10008046894632463B4610461946FDF76AFB15
:102F200006460F466410002CEAD1DDE90401DDE914
:102F30000023BAF1000F06DAFDF75CFB42464B4670
:102F4000FDF758FB05E0FDF7C7FB42464B46FDF792
:102F5000C3FB04460E460022284BFDF745FC03D870
:102F60004FF0FF30014607E00022254B2046314656
:102F7000FDF78DF9FDF71FFC102409E0002C0ADB9A
:102F80000A220023FDF7D0F8039B30321A55641E45
:102F900050EA0102F2D1641C039AC4F111031444F3
:102FA000119A012A03D0012208430DD10AE00843F7
:102FB00004D000204FF0110B119072E7A3EB0B052A
:102FC0006D1E0DE05B4504DD4FF0000205F10105CB
:102FD00004E003DA4FF00002A5F10105002AECD06D
:102FE00002981199C0E90231C0E9004579E7000073
:102FF000000014400000F03F300000000000F043EB
:103000000000E03F2DE9FF4F95B09A4688460646FE
:103010000025EEE1252877D100242746F94A012131
:10302000039400E0044316F8013F203B01FA03F04B
:103030001042F7D130782A2811D06FF02F03307862
:10304000A0F13002092A16D8039A44F0020402EBD8
:10305000820203EB42021044761C0390EFE758F81B
:10306000042B0392002A03DA504244F400540390E4
:1030700044F00204761C30782E2816D116F8010F81
:1030800044F004042A280DD06FF02F023078A0F10C
:103090003003092B09D807EB870302EB4303C7185A
:1030A000761CF3E758F8047B761C30786C280FD038
:1030B00006DC4C2817D068280DD06A2814D104E00B
:1030C000742810D07A280FD10DE044F400140AE0DF
:1030D00044F4801401E044F440147278824202D136
:1030E00004F58014761C761C307866280BD013DC2F
:1030F000582877D009DC002875D04528F6D0462816
:10310000F4D047281AD193E118E0632835D0642819
:1031100079D0652812D18BE1702873D008DC67283C
:10312000F1D069286FD06E280DD06F2806D1ACE0A1
:1031300073282CD0752874D0782853D0524617990C
:1031400090476D1C54E1C4F30250022809D00328B3
:103150000DD0D8F8001004280DD00D6008F1040837
:1031600046E1D8F80010EA17C1E90052F6E7D8F8AE
:1031700000100D80F2E70D70F0E718F8041B8DF8D1
:10318000001000208DF80100EB46012003E058F804
:1031900004BB4FF0FF3061074FF0000102D40DE097
:1031A00009F101018946B9420FDA8145F8DB1BF8C4
:1031B00009100029F4D108E009F101018946814292
:1031C000FADB1BF809100029F6D103985346A0EB4F
:1031D000090721463846179A00F080FA284400EB88
:1031E000090507E044E008E10DE01BF8010B524639
:1031F00017999047B9F10109F7D25346214638464D
:10320000179AF2E039E00A21C4F302524FF0000BA2
:103210000091022A06D058F8040BC117032A09D0DE
:103220000AE023E008F1070020F00702F2E80201BB
:10323000904605E000B2C117042A01D140B2C1177F
:10324000002906DA0A460021404261EB02012D22E4
:1032500002E0220504D52B228DF80420012203E090
:10326000E20701D02022F7E7914657E00A2100E06B
:1032700010214FF0000B00910BE010214FF0000BDC
:1032800044F004040827009103E008204FF0000BED
:103290000090C4F30252022A05D058F8040B002112
:1032A000032A08D008E008F1070020F00702F2E83E
:1032B0000201904603E080B2042A00D1C0B24FF070
:1032C000000922072AD53278702A07D0DDF800C01D
:1032D0008CF0100C5CEA0B0C05D00EE040228DF84F
:1032E0000420012208E050EA010306D030238DF8C3
:1032F00004308DF8052002229146009B83F00803DC
:1033000053EA0B030AD150EA010201D1620705D545
:1033100030228DF804204FF001097F1E3278582AA0
:1033200004D039A20C920CAA02920BE03BA2F9E75E
:103330005B46009AFCF7F8FE0C9B9B5C029A521EBF
:103340000292137050EA0102F2D1029804A9081AFD
:1033500000F1200B600702D524F4803400E001273F
:103360005F4502DDA7EB0B0000E0002000EB0B0146
:10337000009003984944401A0390E00306D4534652
:103380002146179A039800F0A9F90544002706E0A2
:1033900001A85246C05D179990476D1C7F1C4F4590
:1033A000F6DBE0030CD553462146179A039800F04C
:1033B00095F9054404E030205246179990476D1C5A
:1033C0000099481E00900029F5DC08E00298029957
:1033D00052460078491C0291179990476D1CBBF129
:1033E0000001ABF1010BF1DC5BE100F065F9054494
:1033F000761C307800287FF40DAE19B02846BDE861
:10340000F08F00000928010030313233343536376F
:103410003839616263646566000000003031323320
:1034200034353637383941424344454600000000C0
:10343000600700D4062708F1070020F00700F0E835
:103440000223804603F0004C5FEA0C0001D097A0F5
:1034500009E0200501D596A005E0E00701D095A080
:1034600001E0AFF24C001390307823F00043652860
:103470000CD006DC452809D046281DD047287FD12E
:103480003BE0662818D067287AD136E00021112F5A
:1034900001DB112000E0781CCDE9000104A90CA893
:1034A000FFF7EEFCDDE90D010C9A4FF0000B07F180
:1034B0000109109200914EE04FF000400097CDE9D5
:1034C000011004A90CA8FFF7DBFCDDE90D020C9B41
:1034D0000F994FF0000B91461093009211B9791C8F
:1034E00000EB0109B7EB090003D4C0F1FF3B07F182
:1034F0000109A9EB0700019042E0012F00DA012742
:103500000021112F01DD112000E03846CDE9000136
:1035100004A90CA8FFF7B4FCDDE90D010C9A009199
:103520004FF0000BB946109221070FD4009A4A457C
:1035300003DA914601E0A9F10109B9F1010F05DDB6
:10354000109AA9F10101515C3029F4D0B84202DA95
:1035500010F1040F03DA0121CDE9011010E0002879
:1035600003DC8344A9EB000102E0411C494500DD76
:103570008946A0EB0B00401C01904FF000400290E8
:10358000200705D40198484502DB4FF0FF30019039
:1035900000208DF84B0002980DF14B07B0F1004F61
:1035A00025D002200C902B200D90029800280CDAD8
:1035B000404202902D200D9007E00A210298FCF76E
:1035C0003EFF3031029007F8011D0C99481E0C9007
:1035D0000029F2DC02980028EFD1791E0D980870BE
:1035E000307800F0200040F0450007F8020D11A8E7
:1035F000C01BC01D02901398007800B1012000EBA1
:103600000901019801EBE071029801440398401A06
:10361000401E0390E00306D453462146179A0398B0
:1036200000F05CF805441398007818B152461799D9
:1036300090476D1CE00323D553462146179A039803
:1036400000F04CF805441BE0BBF1000F07DB0098CD
:10365000584504DD1098179910F80B0001E01799F0
:1036600030205246904701980BF1010B401E05F1A6
:103670000105019004D12E205246179990476D1CE8
:10368000B9F10001A9F10109DEDC05E017F8010B31
:103690005246179990476D1C0299481E02900029C6
:1036A000F4DC53462146179A03989EE62D0000004D
:1036B0002B000000200000002DE9F0410446002509
:1036C0001E461746880404D405E039462020B0473A
:1036D0006D1C641EF9D52846BDE8F0812DE9F04146
:1036E000044600251E469046C80301D5302700E059
:1036F0002027880404D505E041463846B0476D1CB4
:10370000641EF9D52846BDE8F0814A68002A06D033
:103710000A68531C0B6010704868401E4860704770
:1037200010B5002821D0114B0022001F196803E0BA
:10373000814203D80A4649680029F9D152B1136879
:10374000841A9C4204D1006818441060104602E0BC
:10375000506000E0186039B102680B1A934203D13F
:103760000B681A4402604968416010BD8C0100205A
:103770000648D0E90010002359405840014302D0C8
:10378000024903C9704700200146FBE78001002081
:10379000614800684FF47A72B0FBF2F1B1F1807FBA
:1037A00000D31DE021F07F40401E4FF0E022506129
:1037B00050170F22002807DA13071D0E574B00F091
:1037C0000F04241F1D5503E013071C0E544B1C54FB
:1037D00000BF00204FF0E02290610720106100BF81
:1037E000FDF716FAFEF70EF8FEF746FE4DA150481B
:1037F000FFF798FA8EE04F4804684F480068201A97
:10380000642803D34C480460FEF7DEFD4B48006893
:10381000201AC82815D349480460FEF75FFD4848C0
:1038200000881E2802DC4748FDF7D5FF4448408841
:10383000462806DB4448FDF79CFA44A13C48FFF7C4
:1038400071FA46480068201AB0F5FA7F40D3434821
:103850000460434800783A49087242480178384881
:103860004172007A10B1012810D107E03648FDF707
:1038700077FA3DA12E48FFF755FA0CE03248FDF7E4
:1038800078FA3FA12A48FFF74DFA04E040A1284802
:10389000FFF748FA00BF00BF2948407A10B101285D
:1038A00010D107E02848FDF75BFA3FA12048FFF759
:1038B00039FA0CE02448FDF75CFA41A11C48FFF7F7
:1038C00031FA04E043A11A48FFF72CFA00BF00BF09
:1038D00046480068201AB0F57A7F1AD3434804603E
:1038E000174800791E2806DB0120FEF7E7FC0020C0
:1038F000FEF7DCFD0DE0124800791E2803DB1048BE
:103900004079142805DD0020FEF7D8FC0120FEF7E1
:10391000CDFD00BF6FE700000000002018ED00E0C3
:1039200000E400E0BFAABBFAB3C9B9A60D0A0000C3
:1039300000380140380000206C0100207001002098
:10394000940100203C0000204C000020D1CCCEEDA2
:10395000C5A8B6C8B9FDB8DFA3A10A00740100204C
:103960008801002089010020D3EAB5CEB4ABB8D0DD
:10397000C6F7D5FDB3A3B9A4D7F7A3A10A000000E9
:10398000BCECB2E2B5BDD3EAB5CEA3A10A000000FB
:10399000D3EAB5CEB4ABB8D0C6F7B3F6CFD6B9CA72
:1039A000D5CFA3A10A000000BAECCDE2B7B4C9E4B8
:1039B000C6F7D5FDB3A3B9A4D7F7A3A10A000000A9
:1039C000BAECCDE2B4ABB8D0C6F7B1BBD5DAB5B27C
:1039D000A3A10A00BAECCDE2B7B4C9E4C6F7B3F6C6
:1039E000CFD6B9CAD5CFA3A10A0000007801002024
:1039F000F0B50B30154D20F007010024144A0FE0FC
:103A000003688B420BD38B4205D95E1A4318476873
:103A1000C3E9006700E04368136002C004E0021DD0
:103A200010680028ECD12046002802D1286808B18F
:103A30000020F0BD064A07481060074A121A22F01B
:103A40000702C0E9002401202860D7E79001002088
:103A50008C010020E4010020E0030020002C014044
:103A60000008000000080000C11F0008000000401E
:103A70000100000001000000A11F00080004004038
:103A80000200000002000000A11F00080008004022
:103A90000400000004000000A11F0008000C00400A
:103AA0000800000008000000A11F000800100040EE
:103AB0001000000010000000A11F000800140040CA
:103AC0002000000020000000A11F00080034014079
:103AD0000020000000200000C11F0008004C014031
:103AE0000000080000000800C11F0008005001404D
:103AF0000000100000001000C11F00080054014029
:103B00000000200000002000C11F00080018004035
:103B10004000000040000000A11F0008001C004001
:103B20008000000080000000A11F0008002000406D
:103B30000001000000010000A11F00080E000000AD
:103B400005000000003801400040000004000000B3
:103B50000002000425000200000000000000000038
:103B60000000000000000000000000F8000000005D
:103B7000000000333000000000100C06100C06009E
:103B8000000000000000000040C07840C078400005
:103B9000043F04043F040400007088FC0830000067
:103BA000001820FF211E0000F008F000E0180000BF
:103BB00000211C031E211E0000F008887000000078
:103BC0001E2123241927211010160E0000000000CA
:103BD0000000000000000000000000E018040200E7
:103BE000000000071820400000020418E000000058
:103BF0000040201807000000404080F08040400056
:103C00000202010F01020200000000F000000000AB
:103C10000101011F0101010000000000000000007F
:103C200080B07000000000000000000000000000F4
:103C3000000101010101010100000000000000007D
:103C40000030300000000000000000008060180418
:103C5000006018060100000000E010080810E000F5
:103C6000000F102020100F00001010F800000000BE
:103C70000020203F20200000007008080888700005
:103C80000030282422213000003008888848300085
:103C90000018202020110E000000C02010F80000A5
:103CA00000070424243F240000F80888880808003E
:103CB0000019212020110E0000E010888818000053
:103CC000000F112020110E0000380808C838080025
:103CD0000000003F000000000070880808887000A5
:103CE000001C222121221C0000E010080810E00026
:103CF0000000312222110F00000000C0C0000000AF
:103D000000000030300000000000008000000000D3
:103D100000008060000000000000804020100800CB
:103D20000001020408102000404040404040400094
:103D3000040404040404040000081020408000006F
:103D40000020100804020100007048080808F00074
:103D50000000003036010000C030C828E810E00044
:103D60000718272423140B000000C038E0000000CF
:103D7000203C23020227382008F888888870000039
:103D8000203F202020110E00C0300808080838000D
:103D9000071820202010080008F808080810E00084
:103DA000203F202020100F0008F88888E808100025
:103DB000203F20202320180008F88888E8081000F9
:103DC000203F200003000000C03008080838000031
:103DD00007182020221E020008F808000008F80832
:103DE000203F210101213F20000808F808080000B9
:103DF0000020203F2020000000000808F8080800EC
:103E0000C08080807F00000008F888C02818080063
:103E1000203F20012638200008F80800000000009C
:103E2000203F20202020300008F8F800F8F8080093
:103E3000203F003F003F200008F830C00008F8088D
:103E4000203F200007183F00E01008080810E0009D
:103E50000F10202020100F0008F808080808F000B4
:103E6000203F210101010000E01008080810E000D7
:103E70000F18242438504F0008F88888888870006C
:103E8000203F2000030C302000708808080838000C
:103E90000038202121221C00180808F80808180002
:103EA0000000203F2000000008F808000008F80883
:103EB000001F202020201F000878880000C8380834
:103EC000000007380E010000F80800F80008F800AC
:103ED000033C0700073C0300081868808068180846
:103EE00020302C03032C30200838C800C8380800C4
:103EF0000000203F2000000010080808C838080013
:103F00002038262120201800000000FE02020200B6
:103F10000000007F40404000000C30C00000000066
:103F2000000000010638C00000020202FE0000008E
:103F3000004040407F000000000004020202040034
:103F40000000000000000000000000000000000071
:103F50008080808080808080000202040000000059
:103F60000000000000000000000080808080000051
:103F70000019242222223F2008F80080800000003F
:103F8000003F112020110E00000000808080000002
:103F9000000E112020201100000000808088F80011
:103FA000000E112020103F20000080808080000043
:103FB000001F222222221300008080F088888818A7
:103FC0000020203F202000000000808080808000B2
:103FD000006B94949493600008F800808080000047
:103FE000203F210000203F20008098980000000022
:103FF0000020203F20200000000000809898000052
:1040000000C08080807F000008F800008080800071
:10401000203F24022D302000000808F80000000096
:104020000020203F20200000808080808080800051
:10403000203F20003F20003F8080008080800000E3
:10404000203F210000203F20000080808080000071
:10405000001F202020201F008080008080000000A2
:1040600080FFA12020110E000000008080808000D1
:10407000000E112020A0FF808080800080808000C2
:1040800020203F21200001000000808080808000EF
:104090000033242424241900008080E08080000064
:1040A0000000001F202000008080000000808000B1
:1040B000001F202020103F20808080000080808012
:1040C00000010E30080601008080008000808080A2
:1040D0000F300C030C300F000080800080808000C7
:1040E0000020312E0E3120008080800000808080F2
:1040F00080818E70180601000080808080808000A2
:104100000021302C2221300000000000807C0202BF
:1041100000000000003F404000000000FF000000E1
:1041200000000000FF0000000002027C8000000090
:104130000040403F000000000006010102020404AC
:10414000000000000000000068410008000000209E
:10415000940100003C0800080C4200089401002073
:104160004C060000702E00081184A24A0468090160
:10417000020304060708090C6910052C020406084E
:1041800039512D0801400148312E0602010828133B
:1041900041140C01401410010C2210AE2802020C34
:1041A00048181420010D0A1120181440010E0A119C
:1041B00040181480010F8A80182974297C32300439
:1041C000120204051A243432021934911934390FB9
:1041D00012041340021248123266F401C4095A193B
:1041E00064197739083924192C19242A03D4496C05
:1041F000890C9A080C116C0110035C39AD2908195F
:0C420000F001143EE0183C379839A10092
:04000005080000ED02
:00000001FF
